:020000040800F2
:10000000008001200D4C0408D5DA0308D9DA030872
:10001000E9DA0308F9DA030809DB03080000000045
:1000200000000000000000000000000019DB0308D1
:100030001BDB0308000000001DDB030821DB0308B5
:10004000594C04082DDC030839DC030841DC0308A3
:10005000BDDB0308594C0408C1DB0308C7DB0308F8
:10006000CDDB0308D3DB0308D9DB0308C5FD030898
:10007000D5FD0308E5FD0308F5FD030805FE0308AB
:1000800015FE030825FE0308594C0408594C0408C2
:10009000594C0408594C0408594C0408DFDB030888
:1000A00055DC03085BDC03086DDC0308594C0408CD
:1000B00073DC030879DC030885DC0308594C040869
:1000C000594C0408594C0408594C0408594C04086C
:1000D000594C0408CFDC0308D5DC0308DBDC03083B
:1000E00003DC030833DC030845DB0308B1DC030849
:1000F000B7DC0308C9DC0308594C040835FE0308C3
:10010000594C0408594C04088DDC0308594C040868
:10011000E1DC0308E7DC0308A5DC0308ABDC03082B
:1001200045FE030855FE030865FE030875FE030837
:1001300085FE0308594C0408594C0408594C04081E
:10014000594C0408594C0408594C040839DB03087D
:1001500095FE0308A5FE0308B5FE0308EDDC0308C1
:10016000594C0408594C0408594C0408594C0408CB
:10017000594C0408594C0408594C0408000000006C
:10018000594C0408594C040801380A44914204D0DF
:1001900011F8013B00F8013FF8E770478369023925
:1001A000023B99423DBF8278C36A02FB01300020C6
:1001B000704700F10B010023DA0142EA530310F803
:1001C000012B52FA83F38842DBB2F5D1184670470F
:1001D00008B580B1036873B11A7862B1D988828892
:1001E000914208D1587844F04BF910F0010F0CBF40
:1001F0000020092008BD092008BD03692DE9F04150
:100200000D460931002B3AD0436900245E1E16F8D2
:10021000012F202A04F1010418D0052A56D0092CF8
:1002200002D12E270F700131A2F14107192F0BD8EF
:10023000082C1F7B8CBF4FF0100E4FF0080E1EEAEB
:10024000070F1CBF2032D2B20A7001310B2CDED155
:10025000DA7A2A729A7FDC7F120442EA04621C7FF7
:1002600022435C7F42EA04222A605C7E1A7E42EAD4
:100270000422AA80DA7D9B7D43EA0223EB800024DE
:100280000C70AE693EB303690BB900241AE0EB6948
:10029000002BFAD0028C4FF6FF739A42F5D0D0F8BB
:1002A0001C80771E38F8140060B100213CF006FD78
:1002B0000028EAD0EB69013B9C42E6D2013407F802
:1002C000010FEFE700233355BDE8F081092C4FF013
:1002D000E502B9D1A5E7BDE8F081CA7E8B7E03288F
:1002E00043EA022301BF487D0A7D42EA002243EA35
:1002F000024318467047F8B5056B00F13407044611
:10030000394640782A46012344F000F9A0B9636ACF
:10031000E2692071EB1A934201D30020F8BDE67820
:10032000012EFAD9E36960781D4439462A46012333
:1003300044F0ECF8013EF3E70120F8BD03790BB17E
:10034000FFF7D9BF18467047F8B50446FFF7F6FF28
:100350000546002852D12378032B47D16679012E18
:1003600044D104F1340729464FF40072384639F07D
:1003700008FC5523412284F83232AA2384F8333210
:1003800084F83720522384F81A22226984F8343002
:1003900084F83530612384F8363084F81B32C2F398
:1003A000072384F81C2284F81D32130C120E84F8E3
:1003B0001F22E26884F81E32C2F3072384F8202249
:1003C00084F82132130C120E84F82322226A84F856
:1003D00022327221013284F8181284F81912226331
:1003E00060783946334644F091F8657100216078B1
:1003F0000A4644F0C1F8051C18BF01252846F8BD7F
:10040000036B994270B506460D4611D0FFF796FF73
:10041000044670B92A46707806F13401012344F08D
:1004200041F800281CBF4FF0FF350124356300E080
:100430000024204670BD0000002310B503714FF06A
:10044000FF3303630446FFF7DBFF80BB94F83322DE
:1004500094F8323243EA02234AF65522934228D1D5
:1004600094F86C3094F86D201B0443EA026394F80E
:100470006A20134394F86B2043EA02230E4A23F0C8
:100480007F43934216D094F8883094F889001B0477
:1004900043EA006094F88630034394F8870043EA07
:1004A000002020F07F40801A18BF012010BD0320DB
:1004B00010BD022010BD00BF46415400F0B500231E
:1004C000036085B007460846154644F0CBF8061E83
:1004D000C0F27481C04B53F82640002C00F07081AC
:1004E0003C60237883B1607843F0CAFFC2070BD425
:1004F000002D00F0678100F0040303F0FF00002BE3
:1005000000F068810A2065E1B44F002317F8160057
:100510002370607043F09AFFC30700F155810DB15D
:100520004107EFD420460021FFF786FF012806D0BF
:10053000002840F04B8107EB46035D78ADB32146C0
:10054000002091F8F6316BB191F8FC3191F8FD2162
:100550001B0443EA026391F8FA21134391F8FB214B
:1005600043EA02234DF820300130042801F1100144
:10057000E7D107EB46067678374606B1771E5DF879
:10058000275035B120462946FFF756FF3EB910B92E
:100590000BE046B902200137032FF0D916E10328FA
:1005A00000F0178108B10D2014E194F8402094F870
:1005B0003F3043EA0223B3F5007FF4D194F84B00B7
:1005C00094F84A3053EA00200DD194F85A3094F848
:1005D0005B001B0443EA006394F85800034394F85B
:1005E000590043EA002094F84460E061731E012B37
:1005F000E670D8D894F84130A370002BD3D05A1E9F
:100600001A42D0D194F8452094F8467042EA072760
:100610003A072781C7D194F8481094F8472052EA46
:1006200001220DD194F8562094F85710120442EA92
:10063000016294F854100A4394F8551042EA0122DA
:1006400094F843E094F8421051EA0E21ABD006FB37
:1006500000FE01EB171CF4446245A4D3CCEB02026C
:10066000B2FBF3F3002B9ED040F6F572934206D90D
:100670004FF6F576B3428CBF0326022600E0012632
:100680006A1802330CEB0501032EA3612562626236
:10069000E16212D1002F86D194F8622094F86310A1
:1006A000120442EA016294F860100A4394F861105F
:1006B00042EA0122A2629B000EE0002F3FF473AFDA
:1006C0007244022EA2624FEA43021BBFD21803F00B
:1006D0000103134603EB520303F2FF13B0EB532F56
:1006E000FFF461AF4FF0FF332361E360032E4FF05F
:1006F0008003637158D194F8652094F8643043EA1C
:100700000223012B50D12046691CFFF779FE0028F7
:100710004AD194F8332294F83232607143EA0223CA
:100720004AF6552293423FD194F8363094F8372058
:100730001B0443EA026394F83420134394F83520F1
:1007400043EA0223264A93422ED194F81A3294F8AF
:100750001B221B0443EA026394F81822134394F803
:10076000192243EA02231F4A93421DD194F81E32F4
:1007700094F81F221B0443EA026394F81C221343DB
:1007800094F81D2243EA0223236194F8223294F85C
:1007900023221B0443EA026394F82022134394F8B3
:1007A000212243EA0223E3600F4A267013880133B3
:1007B0009BB200201380E38060610BE00B2009E016
:1007C0000C2007E0284605E0032003E003287FF41F
:1007D000EAAE012005B0F0BD6002002053AC050870
:1007E00052526141727241615C0200200129F8B5E8
:1007F00006460C465DD9836999425AD20378022B8A
:1008000029D0032B3AD0012B53D101EB5105416A7A
:1008100001EB5521FFF7F4FD10B14FF0FF30F8BDAB
:100820006F1C716AC5F308053544304601EB57214A
:1008300095F83450FFF7E4FD0028EED1C7F3080720
:100840003E44E30796F8340045EA00204CBF000917
:10085000C0F30B00F8BD416A01EB1421FFF7D0FD96
:100860000028DAD1640004F4FF743319344493F897
:10087000343094F8350043EA0020F8BD416A01EBBA
:10088000D411FFF7BDFD0028C7D1A30003F4FE7407
:10089000331934339A78D8785B783444000640EAC8
:1008A000024040EA032094F83430184320F07040AE
:1008B000F8BD0120F8BDF8B584680546012C0E4648
:1008C000E98001D10220F8BD03689A699442F9D207
:1008D00054B91A78032A01D19A6A22B91A89964220
:1008E000F0D2986A17E014469F7821463F01BE4235
:1008F0000DD32868FFF77AFF431C01461AD0012860
:10090000E0D92B689B699842DCD2F61BEFE7286898
:100910000C46FFF743FCEC600028D3D02B6800EBBB
:10092000161006F00F0603EB4616343628616E618A
:100930000020F8BD0120F8BD01292DE9F04106464F
:100940000C46154671D9836999426ED20378022B01
:100950003AD0032B49D0012B67D101EB5107416AF3
:1009600001EB5721FFF74CFD00285FD107F101088B
:10097000C7F30807374414F0010418BF97F8342070
:10098000716AEBB21EBF02F00F0242EA0313DBB240
:1009900087F8343001233371304601EB5821FFF7DB
:1009A0002FFD002842D1C8F30803334414B1C5F326
:1009B000071506E093F83420C5F3032522F00F0253
:1009C000154383F834502CE0416A01EB1421FFF702
:1009D00017FD58BB640004F4FF74331983F83450D6
:1009E000C5F3072583F835501BE0416A01EBD411AC
:1009F000FFF706FDD0B9A40004F4FE74331993F890
:100A00003720120602F070421543C5F3072283F81F
:100A1000345083F835202A0C2D0E83F8362083F8C5
:100A2000375001233371BDE8F0810220BDE8F08129
:100A3000F8B505460F4631B9C66896B183699E423E
:100A400028BF01260EE0FFF7D1FE01283FD9441C44
:100A500002D14FF0FF30F8BDAB69984238D33E4623
:100A600000E001263446AB6901349C4204D3012ED8
:100A700001D80020F8BD022428462146FFF7B6FE23
:100A800030B1411C24D0012822D0B442EBD1F0E790
:100A9000284621466FF07042FFF74EFFA8B957B9BC
:100AA0002B69EC605A1C0ED0013B2B616B7943F033
:100AB00001036B7107E0284639462246FFF73CFFE9
:100AC0000028EDD001E02046F8BD0128C1D001206A
:100AD000F8BD2DE9F843C6880136B3B204460F4687
:100AE00013B90420BDE8F8830369002BF9D016F090
:100AF0000F0859D1C16801330361006819B903892E
:100B00009E42EED250E08378013B13EA16134BD19C
:100B1000FFF76CFE0128054602D80220BDE8F883E5
:100B2000421C02D10120BDE8F883206883699D4200
:100B300034D3002FD5D0E168FFF77AFF05460028AF
:100B40003BD00128E9D0431CECD02068FFF7F6FB2E
:100B500007460028E6D1206839464FF40072343049
:100B600039F00FF8D4F8009029464846FFF716FBF5
:100B7000C9F8300023689A7897420CD201221A7182
:100B80002068FFF7DBFB0028CCD12268136B013310
:100B900013630137EEE71A6BD71B1F63E56020680C
:100BA0002946FFF7FBFA20612368E68003EB481330
:100BB000343363610020BDE8F8830720BDE8F88383
:100BC00070B50E4600210446FFF775FEA8B905462C
:100BD00020682169FFF714FC78B963691B78E52B5D
:100BE00000D01BB90135B54201D170BD0546204684
:100BF0000121FFF76EFF0028EAD0042808BF072074
:100C000070BD00002DE9F843FF27054688463C46A5
:100C100004262969002968D02868FFF7F1FB0646F9
:100C2000002863D168690378002B65D0C27AE52B70
:100C300002F03F0250D022F02001A1F1080CDCF1BB
:100C4000000141EB0C01414546D10F2A3BD1590629
:100C500005D503F0BF04EB88477B2B8401E0A3425A
:100C60003AD1437BBB4237D10378EE6903F03F03AF
:100C7000013B0D2253434FF0010E0021214A11F890
:100C800002C000EB0C0292F8019010F80C2042EA2E
:100C90000922BEF1000F06D0FE2B1DD826F8132026
:100CA0009646013303E04FF6FF7C624514D10131D3
:100CB0000D29E3D1027852061BD5FE2B0CD8002259
:100CC00026F8132015E01CB9FFF773FA874215D0F8
:100CD0004FF6FF732B8411E0FF2428460021FFF715
:100CE000F8FE0646002894D000E03EB100232B61B8
:100CF00004E0013CE4B2F0E70426F7E73046BDE843
:100D0000F88300BFC062050870B5018CC6884FF635
:100D1000FF73994208BF31460546FFF7CCFD0446F4
:100D2000E8B928682969FFF76BFB0446A0B92022BF
:100D30006869214638F025FF6B69E5221A702B6837
:100D400001221A71EB88B34209D221462846FFF7E7
:100D5000C0FE04460028E4D0042C08BF022420462C
:100D600070BD012970B504460D4601D8022070BD42
:100D700083699942FAD2A3699D4205D22046294649
:100D8000FFF734FD064608B9002070BD0128EDD0FC
:100D9000411C11D0204629460022FFF7CDFD60B945
:100DA00023695A1C1FBF01332361637943F0010398
:100DB00018BF63713546DEE7012070BD2DE9F74F9E
:100DC0004FF6FF734FF0FF0805460384444628683A
:100DD0002969FFF715FB0746002876D16E6933783D
:100DE000002B6DD0E52BF17A5ED0080701F03F02B1
:100DF00002D50F2A58D101E00F2A46D1D5F81C9010
:100E0000B9F1000F54D0590606D503F0BF04EB88A2
:100E100096F80D802B8401E0A34248D1737B4345B3
:100E200045D1377827F040077B1E0D275F434FF0F1
:100E3000000A0123274A1AF80220B118B25C487848
:100E400042EA002083B13BF055FFFE2F01902ED8DF
:100E500039F817003BF04EFF019A824207F1010B6F
:100E6000034624D15F4603E04FF6FF7290421ED145
:100E70000AF1010ABAF10D0FDCD13278520621D500
:100E800003B339F81730EBB111E024B93046FFF75E
:100E900090F9804519D0A969CB7ADB0704D4304694
:100EA0000B2238F090FE80B14FF6FF732B84FF24A5
:100EB00028460021FFF70DFE0746002887D004E0F2
:100EC000042702E0013CE4B2F2E7384603B0BDE893
:100ED000F08F00BFC06205082DE9F0418469C66942
:100EE00086B021460C22054603A8FFF74DF99DF870
:100EF000172002F0200101F0FF03002940F0CD800F
:100F0000D20764D5E3720127EB61204603A90B22C7
:100F1000FFF73AF9052F15D9B01E3B4630F8022FDE
:100F20008AB1102102F0010E0EEB430313F4803F4F
:100F30001CBF83F4883383F0210301394FEA520246
:100F4000F0D1EBE73B46072203F00F0000F1300140
:100F5000392988BF00F13701013A06A810441B095E
:100F600000F8131CF0D106A810444FF07E0E114675
:100F700000F814EC934201D1234404E0E05C202803
:100F8000FAD00133F6E707299BBF06AA52182022A0
:100F900012F8142C03F8012BA3EB040298BF0131C3
:100FA000072AF0D928460021FFF785FC40B92846DA
:100FB000FFF704FF20B90137642FA6D1072088E08E
:100FC000042840F086809DF81730E372EE619DF8AA
:100FD00017309B0701D4012409E0002436F81430AF
:100FE0000BB10134FAE719340D23B4FBF3F42846AE
:100FF0002146FFF7E5FD00286BD1013C4FD0E98881
:101000002846091BFFF757FC002862D1A869FFF7A3
:10101000D0F8064628682969FFF7F2F9002858D168
:101020006B69D5F81CC05E730F22E1B20D27DA722E
:101030004A1E7A4318739876D87607464FF6FF7E95
:101040007045DFF894E018BF3CF8120017F80EE086
:1010500003F80E009E444FEA10288EF8018007F135
:1010600001074FF6FF7E18BF0132002808BF704607
:101070000D2FE3D1704502D03CF812200AB941F09F
:10108000400119702B6801221A7128460021FFF7D0
:1010900020FDF0B9013CBDD101E0062019E028682F
:1010A0002969FFF7ADF9044690B921462022686905
:1010B00038F067FD0B226869A969FFF765F8AB692D
:1010C0006A69DB7A03F0180313732B6801221A7123
:1010D000204606B0BDE8F081C06205082DE9F74F53
:1010E0000B782F2B05460F4601D05C2B02D1013720
:1010F000002301E003685B69AB603B781F2B47D896
:1011000028460021FFF7D7FB00236B6135E15C2BFC
:101110003ED0D5F81C9004F1FF3AA9F10208002650
:101120001AF8010F1F2806F1010738D82028274494
:1011300034BF04240024012E4CD1B9F800302E2BEA
:101140004ED1002329F81630AA69B34234BF2E21AC
:101150002021D15401330B2BF6D1AB6944F020048C
:10116000DC7228460021FFF7A6FB10B92846FFF7DE
:1011700025FEAB69DB7AB0B3042840F0FE8013F0A3
:10118000200F03F0040332D00022AA606A6163BB1F
:101190003B782F2B3C4607F10107B8D1F8E72F2801
:1011A000C4D05C28C2D0B7F5807F00F0D680012182
:1011B0003BF084FD002800F0D0807F2806D8704ADC
:1011C00012F8013F13B18342FAD1C6E028F8020FAA
:1011D0003E46A5E7022E03D1B9F802302E2BACD043
:1011E00009EB460319E05A0706D50020C5E0002B9D
:1011F00014BF04200520C0E06969CB7ADB0605D561
:101200002B681878FFF769F8A860C1E70520B4E0FB
:1012100033F8022D202A03D1013E002EF8D19CE0A4
:101220002E2AF9D04FF0000829F81680A86920214D
:101230000B2238F0A6FC09EB460A434639F8132086
:10124000202A01D10133F9E72E2AFBD00BB144F05B
:101250000304524632F8021D2E2901D0013EF9D175
:101260004FF0000B4FF0080AD84639F813005A1C0B
:1012700000284CD0202803D02E2805D1B2426ED0B1
:1012800044F003041346F0E7D34502D2B24218D12A
:1012900065E0BAF10B0F05D144F0030443464FF06B
:1012A0000B0A35E0B24202D044F003042FD84FEAD3
:1012B00088085FFA88F832464FF00B0A4FF0080BA7
:1012C000E0E77F280CD9002101923BF0F7FC019A5E
:1012D00018B12C4B184410F8800C44F0020428B1CB
:1012E000294911F8013F2BB18342FAD144F003049C
:1012F0005F2006E0A0F141039BB2192B33D848F0E0
:101300000208AB6903F80B000BF1010BBAE7434687
:10131000AA691178E52904BF05211170BAF1080FF7
:1013200004BF4FEA88085FFA88F303F00C020C2A26
:1013300003D003F00301032901D144F00204A10703
:1013400009D403F00303012B08BF44F01004042A5E
:1013500008BF44F00804AB6902E706200DE0BAF1CB
:101360000B0FA4D198E7A0F161039BB2192B9EBF8C
:10137000203848F0010880B2C3E703B0BDE8F08F21
:10138000EB61050840620508F46105081FB501908E
:1013900004A8009140F8041D144643F063F9011EAF
:1013A00014DB0D4B53F8210008B1002202700198A4
:1013B00008B10022027043F8210050B1012C07D17E
:1013C00001A869460022FFF779F802E00B2000E04F
:1013D000002004B010BD00BF600200202DE9F043E2
:1013E0008FB0144601910646002800F0918000233A
:1013F000036001A905A802F01E02FFF75FF80028AC
:1014000040F08D8002AB0B9305A8464B01990C93DD
:10141000FFF764FE0A9D10B9002D08BF062014F0E6
:101420001C0F04F01F0742D048B1042802D105A8C0
:10143000FFF752FD47F008070A9D30B16FE0EB7AE5
:1014400013F0110F6AD1630764D43C0738D543F019
:10145000C7F8C0F307230024A873EB73DDF81480EA
:10146000EC72030C000E2B742C776C77AC77EC7756
:10147000687498F800002946FEF72FFF0123AC7628
:10148000EC762C756C7588F804300446C0B1404683
:101490002146D8F83090FFF764FC00283FD105982A
:1014A000013CC4604946FEF7ABFF48B137E0002875
:1014B00035D1EB7AD8062FD4A10701D5DA072DD480
:1014C000DDF814803B074FF00004D8F83030F361AA
:1014D00048BF47F020073562B771F47198F80000F3
:1014E0002946FEF7FAFE3061AB7FEA7F1B0443EA30
:1014F00002632A7F13436A7FB46043EA0223F360E6
:10150000B8F80630B461C6F80080B380204606E023
:10151000092004E0082002E0042000E007200FB0CA
:10152000BDE8F0835C0000202DE9F84F99460023C8
:10153000C9F80030054688461446FEF749FE0028E3
:1015400040F08380E87900287FD1AB79DA077BD53A
:10155000EB68A868181A844228BF0446002C70D093
:10156000AB68C3F30802002A48D128688778013F96
:1015700007EA532717F0FF0710D10BB9286902E0DB
:101580006969FFF733F9012801D8022002E0431C02
:1015900003D10120E871BDE8F88F6861D5F800B08B
:1015A00069695846FEF7FAFD0028EED05FEA542A32
:1015B00000EB070621D09BF802309BF801000AEBF4
:1015C00007029A4288BFC7EB030A41463246534698
:1015D00042F068FF0028DCD129680B7953B1086B11
:1015E000801B504506D208EB402034314FF4007286
:1015F000FEF7CAFD4FEA4A2618E0AE61AE682868D9
:10160000A969C6F30806C6F50076A64228BF264695
:10161000FEF7F6FE0028BCD1A9682B68C1F30801CB
:101620001944404634313246FEF7AEFDAB683344D0
:10163000AB60D9F800303344B044C9F80030A41B83
:101640008CE72046BDE8F88F0720BDE8F88F2DE92C
:10165000F84F98460023C8F8003004460F46164657
:10166000FEF7B6FD002840F0AC80E079002840F09D
:10167000A880A3799A0740F1A380A368DE4228BF1F
:101680000026AEB1A268C2F30803002B6BD120681C
:101690008378013B03EA522313F0FF0A1CD112B9ED
:1016A000216959B900E06169FFF7C2F9014628B91B
:1016B000A368E26893427CD9E3607AE0012901D112
:1016C000022002E04B1C03D10120E071BDE8F88F3D
:1016D0002369616103B921612068A369026B9A42A1
:1016E00003D1FEF72BFE0028EED1D4F800B06169DB
:1016F0005846FEF753FD0028E2D0750A00EB0A09B0
:1017000023D09BF802309BF8010005EB0A029A42B5
:1017100088BFCAEB030539464A462B4642F0F6FE1F
:1017200082460028D0D12068016BC9EB0101A94293
:1017300009D2343007EB41214FF40072FEF724FD4B
:10174000236883F804A06D0228E0A268E3689A4247
:1017500007D35846FEF7F2FD0028B5D12368C3F839
:101760003090C4F81890A5682068A169C5F30805F1
:10177000C5F50075B54228BF3546FEF741FE002885
:10178000A2D1A0682368C0F3080018442A46343068
:101790003946FEF7F9FC236801221A71A3682B442D
:1017A000A360D8F800302B442F44C8F80030761BD3
:1017B00067E7A37943F02003A3710020BDE8F88F09
:1017C0000720BDE8F88F70B50546FEF701FD064617
:1017D000002837D1AB799B0634D52868E969FEF734
:1017E0000FFE064670BB2C6AE37A43F02003E372D7
:1017F000EB682377AB891B0A6377EB89A377EB7BD5
:10180000E3772B69A376C3F307221B0C23751B0A0E
:10181000E276637542F0E4FEC0F30723A075E3753A
:10182000030C000E23766076A674E674AB7923F081
:101830002003AB712B6801221A712868BDE8704043
:10184000FEF782BD304670BD10B50446FFF7BBFF02
:1018500020B92046FEF7BCFC00B9206010BD000096
:1018600007B502AB43F8040D184642F0FBFE002812
:10187000A9BF034B0B201870002003B05DF804FBD8
:10188000745C002030B58FB001A90190002205A83A
:10189000FEF714FE0446E8B902AB0B9305A80F4B04
:1018A00001990C93FFF71AFC044670B90A9919B90B
:1018B000059B079A5A610DE0CB7ADB0609D5059D99
:1018C0002878FEF70AFD686104E0042808BF0524B3
:1018D00000E0052420460FB030BD00BF5C000020B2
:1018E0002DE9F04198B0002201900F46027001A945
:1018F0000FA8FEF7E3FD0546002840F0898004AB01
:101900001593454B16930F9B5B6911933C46DDF88D
:101910004480B8F1000F5ED001210FA8FEF7CBFF85
:101920000146002850D10FA8FFF76CF906460028A1
:101930004CD10F9B14991878FEF7CFFC31461190CB
:101940000FA8FEF7B8FF002842D10FA80021FFF72B
:1019500059F90646002856D10F9B14991878FEF7BE
:10196000BCFC80450ED1019B0D930FA807A90E94D6
:10197000FEF743FC0DF125030393019B1A784AB14E
:10198000039307E031460FA8FFF7A3F806460028A7
:10199000DBD038E003990A46531A12F8010B0028ED
:1019A000FAD1DA1C944215D31A46013A511C019817
:1019B00005D003998E5CA118C91A4654F5E7DB439C
:1019C0001C442F230355A2E7054604E0054602E028
:1019D000054600E01125019B03931DB1039B0022E6
:1019E0001A7015E00D4B03A9187842F06FFEBC4247
:1019F000F4D0039B5A1C0392019A125D1A700134B1
:101A0000BC42F6D3EAE7042E14BF35460225E2E7CE
:101A1000284618B0BDE8F0815C000020745C00200E
:101A200070B504460D46FEF7D3FB002870D1E0796F
:101A300000286DD1E3689D4204D9A27912F0020F0B
:101A400008BF1D460022A368A2600DB900254EE024
:101A50002068867876026BB1013B6A1EB3FBF6F113
:101A6000B2FBF6F28A4205D372421340A360ED1A2C
:101A700061690FE0216961B9FEF7DAFF01280146CB
:101A800001D1022002E0013002D10120E07170BDDD
:101A9000216161610029D9D0B5421AD9A3792068A2
:101AA0009A0704D5FEF7C4FF014618B910E0FEF707
:101AB0009DFE01464B1CE8D00129E2D923689B69B1
:101AC0009942DED2A36861613344A360AD1BE3E7B2
:101AD0003546A3682B44A360C5F30803002BB5D09B
:101AE0002068FEF75BFB0028CBD000EB5525A368F0
:101AF000C3F308021AB1A269954218BFA561E26852
:101B0000934281BFE360A37943F02003A3710020D7
:101B100070BD000010B586B00446019138B302A82C
:101B200001A90022FEF7CAFCF0B9029B236003ABB7
:101B3000A361134BE36120460199FFF7CFFAD0B9B7
:101B4000616939B1CB7ADB060DD5029B1878FEF7B7
:101B5000C4FBA060029BDB88A38020460021FEF727
:101B6000AAFE042805D105200023236006E00920F1
:101B700004E018B1F8E70428F6D1F4E706B010BD88
:101B80005C00002010B50446FEF722FB00B920607F
:101B900010BD00007FB505460E46FEF719FB044652
:101BA00000BB26B928462146FEF785FE19E001ABA9
:101BB000AB610E4BEB6128462146FFF723F8042862
:101BC00001D12C6100E060B928463146FEF715FBD3
:101BD00028460021FEF77DFF042802D100232B6157
:101BE00000E00446204604B070BD00BF5C00002049
:101BF00030B58FB00D46019001A905A80022FEF76F
:101C00005DFC044690B902AB0B9305A8094B019902
:101C10000C93FFF763FA044640B90A9B2BB12DB130
:101C200005A82946FEF7E9FA00E0062420460FB091
:101C300030BD00BF5C0000202DE9F34702AB144625
:101C400043F8040D0F46104619460022FEF736FCF5
:101C50002468054600285DD1D4F818802369A8F1CE
:101C60000202934201D83B6054E094F80090B9F12D
:101C7000010F12D14FF00208064620464146FEF7FA
:101C8000B5FD431C3BD001283BD000B90136A36908
:101C900008F101089845F0D336E0616A03462E4604
:101CA00050B9204601F1010AFEF7AAFB58BB04F126
:101CB000340351464FF40070B9F1020F93F801C09C
:101CC0001A7806D152EA0C2208BF013602330238D4
:101CD00011E093F802E093F803A04FEA0E4E4EEAAB
:101CE0000A6E4EEA020242EA0C2222F0704202B967
:101CF000013604330438B8F10108D1D104E00125DC
:101D000002E0022500E005466379266143F0010305
:101D100063713E60284602B0BDE8F08770B598B0A8
:101D200001A90190012206A8FEF7C8FB0146002880
:101D300049D103AB0C930199244B0D9306A8FFF7EF
:101D4000CDF9014600283ED10C9BDB7A990605D4DB
:101D50000B9919B1CE7AF20721D401E0062132E0C5
:101D6000069D2878FEF7B9FA0446D0B1F30618D5D7
:101D70006B699C4213D00FA806A92422FEF704FA2F
:101D800002210FA81194FEF796FD0146D8B90FA8BD
:101D9000FEF738FF014610B1042802D013E00721F6
:101DA00011E006A8FEF7B0FF014660B924B9069815
:101DB000FEF7CAFA014606E021460698FEF7D1FF73
:101DC00001460028F3D0084618B070BD5C00002022
:101DD0002DE9F04F95B0079042F002FC07A90546A7
:101DE00001220BA8FEF76AFB0646002840F0DB80C4
:101DF00008AB11930BA86E4B07991293FFF76EF97E
:101E00000646B0B1042840F0CE80119BDB7A03F087
:101E1000200303F0FF0173B90B98FEF709FE044697
:101E200058B1012C0BD102260B982146FEF799FFE1
:101E3000B9E00826B7E00626B5E00726F4E7631CFC
:101E400000F08C800B98FEF779FA06460028EBD15B
:101E5000DDF82CB021465846FEF7A0F90BF1340707
:101E6000314606904FF40072384637F08AFE202142
:101E70000B22384637F085FE2E238BF8343005933D
:101E8000EBB201939DF804308BF84A30C5F3072379
:101E900002939DF808308BF84B30C5F307431022AE
:101EA00003939DF80C308BF84C3024FA02F6330A79
:101EB00004939DF810308BF83F202D0E5FFA84F8C4
:101EC000C4F307295FFA86FA8BF849303946202295
:101ED0008BF84D508BF84E808BF84F908BF848A0C4
:101EE0000BF15400FEF750F9059B0B9A8BF8553017
:101EF00011780D9BDDF818C0032903D1916A8B423C
:101F000008BF00238BF86E30C3F307211B0C8BF83E
:101F100068301B0A8BF86F108BF8693092F802B0AA
:101F2000BBF1000F1CD00B9801220CF10103C0F88B
:101F300030C002710593FEF7DEF9064600287FF4F3
:101F400073AF384631464FF4007237F01AFE0BF18A
:101F5000FF335FFA83FBDDF814C0E1E7012663E796
:101F60000BA8FEF7B9FF064600287FF45DAF109B73
:101F70000B985D761022DA729DF804209A759DF810
:101F80000820DA759DF80C201A769DF8102083F849
:101F90001A8083F81B9083F814A05A7501230371EB
:101FA000FEF7D2F90646304615B0BDE8F08F00BF07
:101FB0005C00002030B59FB00122019000910CA878
:101FC00001A9FEF77BFA002879D10C9B159303AB8E
:101FD00012930CA83B4B01991393FFF77FF800284D
:101FE0006DD1129BDB7A9A065ED41199002959D0E3
:101FF00006A80B311522FEF7C7F815A80CA9242254
:10200000FEF7C2F8684642F02DFB002846DB15A813
:102010000099FFF763F8002842D004284FD115A893
:10202000FEF75AFF00284AD11A9D0DF11A0105F159
:102030000D001322FEF7A8F89DF818300C9C43F011
:102040002003EB7201232371EB7ADB062ED5179B5D
:102050000E9A9A422AD029462078FEF73EF9014688
:102060002046FEF79BF8014640B32046FEF7C8F92C
:102070000C9A20BB92F855302E2B17D1179B82F863
:102080006E30C3F307211B0C82F868301B0A82F8FC
:102090006930012382F86F10137107E00B200EE006
:1020A00008200CE004200AE0062008E00CA8FEF757
:1020B0002BFE20B90C98FEF747F900E002201FB074
:1020C00030BD00BF5C00002070B58EB001A901904A
:1020D000012205A8FEF7F2F9002840F09D80019B3F
:1020E0008DF808001A782F2A04BF01330193019A52
:1020F00011468B1A11F8010B0028FAD113449342B0
:10210000A3EB020608D1002105A80791FEF7D3FB37
:10211000002840F081801BE013F8011D2029EED03B
:1021200000242246019B0121985C551C3AF0C6FD13
:102130003AF0E0FD00213AF0C1FD08B906206BE05D
:10214000364A12F8013F002B40D08342F9D1F5E71F
:1021500005A80121FEF756FD60B99DF808302BB1A6
:102160000A9802A90B22FEF70FF81CE00A9BE52251
:102170001A7025E004284FD19DF8080000284BD0A4
:10218000012105A8FEF71CFD0146002844D12022AC
:102190000A9837F0F6FC0B220A9802A9FDF7F4FF23
:1021A0000A9B0822DA7242F01BFA0A9B98750A9B76
:1021B000C0F30722DA750A9B020C000E1A765876D5
:1021C000059801230371FEF7BFF825E0FF2820D909
:1021D000092CB3D80EAB2344020A03F8302C013487
:1021E0000EAA631C1444B54204F8300C2A4601D2EE
:1021F0001C4697E702AA1344991A0A2903D82021FA
:1022000003F8011BF8E79DF80830E52B7FF47BAF5E
:1022100094E70A2CE4D991E70EB070BDFB61050884
:102220002DE9F04F8BB0012907908A46164600F23F
:10223000FF8207A842F016FA0028C0F2FB82AC4BDE
:1022400053F82040002C00F0F78200232370A94BA4
:1022500013F8108003EB4003404693F801B042F0BE
:10226000F5F8C30700F1EA8200F0040000F0FF0275
:10227000002840F0E5824046BBF1000F2FD004F16A
:102280003401012342F00EF908B10120F2E294F882
:10229000332294F8323243EA02234AF6552293421B
:1022A00001D00E20E6E204EB0B1303F5F1731A796B
:1022B000002AF6D09A7ADF7AD97B120442EA0762C2
:1022C0001F7A3A435F7A42EA07279A7B120442EA6E
:1022D00001611A7B5B7B0A4342EA03230EE0012182
:1022E00009AA42F049F90028CFD1099B2F2BCCD95C
:1022F000BAF1000F14BF00273F27DB1B0993731EA1
:102300003342099A02D1002E40F09C8200234FF400
:10231000FA61B2FBF1F1784830F81300814201D242
:102320000133F8E7754931F81360B6F5007F01D342
:10233000760A00E01EB1812E28BF802600E001262B
:1023400040F6F573B2FBF6F59D4240F280824FF6FF
:10235000F5739D4240F28982AD00002305F2072506
:1023600003936D0A4FF0030920230193019B3B4423
:102370000293039B02992B440B44F11B19448A429C
:102380008FD34046032108AA049342F0F5F8049B3A
:1023900020B9089A013AB2F5004F01D30122089200
:1023A000089ADDF824C0511E19445242B9F1030FB6
:1023B00002EA0102A2EB030308BF019A089301BFDE
:1023C000D2180192029AD2180ABF1346ED1802934E
:1023D000019B039AC3EB0C035B1BB9F1020FA3EB48
:1023E0000203B3FBF6F3049306D1049A40F6F573A7
:1023F0009A427FF656AF13E0B9F1030F07D1049A62
:102400004FF6F5739A427FF64CAF0C230DE0B9F10D
:10241000010F05D1BCF5803F2CBF0623012304E04A
:10242000BCF5803F34BF04230623BBF1000F09D065
:1024300004EB0B1B40468BF8E63104F1340100221B
:1024400001234CE0BAF1000F5AD104F1340B51468C
:102450004FF400725846CDF818C0059337F091FB41
:10246000DDF818C0059B84F8F631FE2343F6C162FF
:1024700084F8F73107EB0C03B3FBF2F39A080893E7
:1024800084F8F9313F2384F8FA31CCF3072384F838
:10249000FF314FEA1C4384F8003255234FF0010E00
:1024A00042F03F0284F8FEC184F832324FEA1C6CDD
:1024B000AA2384F8F82184F8333284F8F3E184F80D
:1024C000F4E184F8F5A184F8FBA184F8FCA184F878
:1024D000FDA184F801C2404659465246734642F077
:1024E00015F800287FF4D1AE4FF0F80B0AE000BFDA
:1024F0006002002053AC0508C0610508D6610508DC
:102500004FF0F00B04F1340A00214FF400725046F2
:1025100037F037FB5046D9490B22FDF735FE022232
:1025200084F840209DF8042084F842200023019A7A
:1025300084F83F30B9F1030F84F8453018BF022307
:10254000C2F3072284F84630099B84F84320012215
:10255000B3F5803F84F844209AB229BF120A120AC8
:1025600084F855201A0C34BF84F8482084F856208B
:102570004FF0FF0228BF84F8543084F84E2028BF63
:102580001B0EC7F3072234BF84F8473084F8573056
:1025900084F851203F233A0C84F84C3084F85220C0
:1025A00000233A0E84F84D3084F84F3084F85320DD
:1025B00084F8416084F849B084F85070019342F087
:1025C0000FF8B9F1030F089082B2019B33D1120AC0
:1025D00084F87820020C84F87920C5F3072284F867
:1025E00059202A0C84F85A202A0E84F85B200222F3
:1025F00084F8602084F86130012284F8623084F825
:10260000633084F8653084F86730802384F877007D
:1026100084F86420000E062284F87430292384F89C
:102620007A0084F8585084F8662084F8763004F1F3
:102630007B00934919E0030C84F85D30C5F3072350
:1026400084F84B30802384F85B00120A000E84F873
:1026500058308C4984F85E00292384F85C2084F883
:102660004A5084F85A3004F15F001322FDF78CFDC4
:10267000552384F83232AA2384F833324046514637
:102680003A46012341F042FF00287FF4FEADB9F144
:10269000030F05D140465146BA1D012341F036FFD4
:1026A000504600214FF4007237F06BFAB9F1030F76
:1026B00014D0754BB9F1010F18BF6FF0FF0343EA57
:1026C0000B03FF224FEA136B089384F8343084F82D
:1026D000352084F8362084F837B01CE06BF0FF0317
:1026E000089384F83430FF2384F8353084F836308A
:1026F00084F8373084F8383084F8393084F83A3048
:1027000084F83B3084F83C3084F83D3084F83E3027
:102710000F2384F83F30029B51461A4603F1010B08
:102720004046012341F0F2FE014600287FF4ADADA2
:1027300050464FF4007237F024FA01230893089BA7
:10274000AB4213D20BF1010C404651465A460123CD
:10275000CDF804C041F0DAFE00287FF496AD089B66
:10276000DDF804C001330893E346E8E7039B5D46C8
:10277000B9F1030F18BF1E460BF1010C404651463C
:102780005A460123CDF804C041F0C0FE00287FF472
:102790007CADDDF804C073196345E346ECD1B9F1B3
:1027A000030F3CD1522384F8343084F83530612350
:1027B00084F8363084F81B32049B84F82102013BF4
:1027C000412284F8372084F81A22C3F3072284F8C0
:1027D0001C3284F81D221A0C1B0E84F81F320223AF
:1027E00084F820325523722184F83232AA2384F8E7
:1027F000181284F8191284F81E2284F8220284F830
:10280000230284F8333251467A1C0123404641F0BA
:102810007DFE40465146FA1D012341F077FE00211E
:1028200040460A4641F0A8FE003018BF012021E0D2
:1028300013201FE00B201DE00C201BE0032019E0FB
:102840000A2017E0B6F5007FBFF472AD73E505EB23
:10285000450501356D0803354FF00109202305F2C8
:10286000FF1503936D0A01237FE502356D004FF0DC
:102870000209F3E70BB0BDE8F08F00BF0C6205085A
:0C288000186205082C62050800FFFF002C
:020000040802F0
:10000000C0F808E0C460056146618761C0F81C80E3
:10001000C0F82090C0F824A0C0F828B0C0F82CD0B8
:10002000024B1A680260186000207047D059002007
:100030005FF808301A6812681A6070475FF8143069
:100040001A68002A1DF0E082506010681860D2F82B
:1000500008E0D468156956699769D2F81C80D2F80F
:100060002090D2F824A0D2F828B0D2F82CD00120C9
:10007000704700BF10B50021044600F0C9FA28B946
:1000800020461CB1BDE810400BF074BF10BD00212C
:1000900000F0BEBA10B50121044600F0B9FA28B943
:1000A00020461CB1BDE810400BF064BF10BD38B550
:1000B0000546FFF7DFFF044628B925B12846BDE80D
:1000C00038400BF057BF204600212A4619F059FD51
:1000D000204638BD10B501220C4600F0CDFB28B9F2
:1000E00020461CB1BDE810400BF044BF10BD00F02D
:1000F000C3BB00F04DBB00003348D0F8A0322DE95F
:10010000F04F4FF0030E00F5D076044600F5287B43
:10011000B34241D91D1FD0F888C153F8041CC0F860
:10012000A052002201328B184FEA930803F0030318
:100130001CF808805B0048FA03F303F00303022B6A
:10014000F0D0D0F89431920003EB011339D0043B86
:1001500053F8045F290719D1D0F894118D4215D3B3
:10016000691AD4F898714FEA9118090901F0030C43
:10017000AF424FEA4C0C09D9D4F888A11AF808907C
:1001800049FA0CF505F00305012D07D0013ADFD13E
:10019000D0F8A032B342BDD8BDE8F08F0EFA0CFC07
:1001A0004CEA09090AF80890D4F8A0C2DC450CF121
:1001B000040836BFC4F8A082C4F89C51CCF80010E3
:1001C000E4E72B46A4E700BFC859002003071BD172
:1001D000F0B41D4ED6F89431984214D3D6F8982135
:1001E000824210D9C01A8109D6F88841000900F06E
:1001F0000303655C5A0045FA02F202F00302012A89
:1002000004EB010701D0F0BC7047D6F8A822914258
:100210003CBFC6F8A8123D78810803275B0007FAA7
:1002200003F325EA030363540130D6F888418108BB
:1002300000F00303655C5A0045FA02F202F0030283
:10024000022AEBD0DFE700BFC8590020F8B521F043
:100250000F073C1A134A144DE400A2FB0434640A4D
:100260000319A7EB841E224600211E46C5F89031D3
:10027000C5F894E1C5F88801C5F88C41C5F89871B6
:1002800019F07FFCA2000732D2083046002119F095
:1002900078FC00230122A5F8A622C5F8A832A5F80B
:1002A000A432F8BDF32C23FAC8590020034AB2F84F
:1002B000A4320133A2F8A432704700BFC85900200D
:1002C000034AB2F8A432013BA2F8A432704700BF3F
:1002D000C8590020034BB3F8A402003018BF012016
:1002E000704700BFC85900202DE9F843244DB5F8E8
:1002F000A4320021013305F5D072A5F8A432C5F867
:100300009C11C5F8A0222C1F05F5BA762F4605F5DD
:1003100028794FF0030854F8043F1A0719D1D5F88B
:100320009421934215D39A1AD7F898014FEA921E56
:10033000120902F0030198424FEA410109D9D7F8A6
:1003400088C11CF80E0040FA01F303F00303012BEF
:1003500005D0FFF7D1FEB442DDD1BDE8F88308FA3D
:1003600001F108430CF80E00D7F8A012494501F13D
:10037000040036BFC7F8A002C7F89C310A60E8E75E
:10038000C859002000293ED02DE9F8431E4E0D46E5
:10039000A0F1040906F528780024032759F8043F42
:1003A0001A0718D1D6F89421934214D39A1A4FEA17
:1003B000921E120902F003014800D6F898119942E2
:1003C00009D9D6F888C11CF80E1041FA00F303F0E1
:1003D0000303012B06D00134FFF78EFEAC42DDD1C2
:1003E000BDE8F88307FA00F001430CF80E10D6F8C8
:1003F000A012414501F1040036BFC6F8A002C6F8BC
:100400009C310A60E7E77047C85900202DE9F04F9A
:10041000534ED6F88C01D6F89C3183B0800006F597
:10042000D07537463BB30024C6F8A052C6F89C41AD
:1004300018B944E00134844219D2A308D6F88811CF
:1004400004F00302CB5C5200134103F00303032BBF
:10045000F0D1D7F8A0321A1DC7F8A0221C60FFF710
:100460004BFED7F88C01013480008442E5D3D6F8E6
:100470009C31002BD7D110B39C46DFF8E4901D4689
:100480004FF0030A06E0032B5FD0012B22D0013589
:10049000854214D2AF08D6F8882105F00304D15D57
:1004A000640041FA04F303F00303022B02EB070E8E
:1004B000E9D1BCF1000F3CD101358542EAD3B6F851
:1004C000A4320022013BA6F8A432C6F8A82203B049
:1004D000BDE8F08F4FEAD50BD9F8902112F80BC088
:1004E00005F007084CFA08F0C3075A4421D5290142
:1004F000D9F89401435808447BB16A4621210AF097
:1005000017FF009A22B100206A4601460AF0C4FE95
:10051000D6F8902112F80BC05A44012303FA08F3CD
:100520002CEA030C82F800C0D6F88831D95D03EBC1
:10053000070E0AFA04F321EA03018EF80010D6F838
:100540008C014FF0010C8000A1E70223A34021EAB7
:100550000301D155D9F88C014FF0000C800096E7CB
:10056000C8590020294BF0B5D3F89821D3F894113D
:10057000D3F88C610024521AB60080E8140084601D
:10058000C460046144613FD0D3F888E12746254622
:10059000214607E0022B02D10134446001350131CC
:1005A000B1421AD08B0801F003021EF8033052004A
:1005B000134103F00303012BECD8012D12D0022DBF
:1005C0001ED04269AA4238BF4561012B13D10131C7
:1005D0000134B14244601D46E4D126013F0146602A
:1005E0008760F0BDC2680132C2604269AA4238BF6A
:1005F0004561012BEBD0CDD2013787600025CEE7D6
:10060000026901320261DCE73746E8E7C859002099
:100610002DE9F0475D4FB7F8A44200F10F06360907
:10062000002C54D1002E52D0D7F8A822D7F88CE154
:10063000B7F8A6C2BCFA8CFC72450D4680464FEA5C
:100640005C1C37D2D7F8880181181AE00134A64221
:1006500040D913F00C0F1ED10134A64240F28C8019
:1006600013F0300F1CD10134A64240F2888013F001
:10067000C00F1AD10134A64240F284800132724583
:1006800018D211F8013B13F0030FDFD013F00C0F59
:100690004FF00004E0D013F0300F4FF00004E2D030
:1006A00013F0C00F4FF00004E4D0013272454FF058
:1006B0000004E6D3BCF1000F09D121F0C7F8D7F848
:1006C000A822D7F88CE172454FF0010CBAD3002074
:1006D000BDE8F0879300012CA3EB040103F1010CAA
:1006E00001F1010604BF4FEA9C02C7F8A822B20834
:1006F00006F003094FEA490910F802E0012404FA60
:1007000009F4023144EA0E048B42845428BF4FF0AE
:10071000020910D34FEA910ED7F8882101F00304A3
:1007200012F80E00640009FA04F4013120438B42F0
:1007300002F80E00EED2D7F89491DFF850A03701FE
:10074000C6EB0C0209EB0704C8EB021204EB08002D
:10075000002119F016FA65B10023DAF8900149F882
:100760000730F1080123425C06F00706B34013434B
:1007700043542046BDE8F0879200531CABE792003B
:10078000931CA8E79200D31CA5E700BFC85900201E
:100790001F4AB2F8A432E3B903071AD1D2F8943150
:1007A000984216D3D2F89811814212D9F0B4C01AE7
:1007B0008409D2F88851000900F003032E5D590026
:1007C00046FA01F101F00301012905EB040701D00C
:1007D000F0BC7047D2F8A8128C423CBFC2F8A842C5
:1007E0003E78840803275B0007FA03F326EA030335
:1007F0002B550130D2F88851840800F003032E5D98
:10080000590046FA01F101F003010229EBD0DFE7BC
:10081000C8590020034610F00F0029D1154AD2F81C
:1008200094118B4214D310B4D2F898419C420DD944
:100830005B1AD2F888419A091909A35C01F00302F6
:100840005200134103F00303012B02D05DF8044B67
:10085000704701300B189A0803F00303A25C5B0099
:1008600042FA03F303F00303022BF2D00001EDE799
:1008700000207047C85900202DE9F047614FB7F8B4
:10088000A432002B6FD10546002800F0B5809446B5
:100890000E46002900F0888010F00F0863D1D7F8C9
:1008A000943198425FD3D7F8982182425BD9C31A1A
:1008B0009809D7F888211B0903F00301145C49004B
:1008C0000C4104F00304012C4DD1D7F88C1103F135
:1008D000010E4FEA810906F10F00F1454FEA1010B1
:1008E00013D94FEA9E010EF0030A515C4FEA4A0AFF
:1008F00041FA0AF101F0030102292ED029B908F1C9
:10090000010808EB0401884228D8A04271D0844233
:100910002CD9241A03EB000C13D0644463464FF027
:10092000030801E0D7F888219E0803F00300915DD9
:10093000400008FA00FE013321EA0E01A34291555E
:10094000F0D1D7F8A8222F494FEA9C03934250D206
:10095000C1F8A8322846BDE8F08701340EF1010E37
:10096000CE45BED1D1E70020BDE8F087A044404588
:100970001FD9BCF1000FF6D0D7F89011214FDA083B
:1009800003F00703895C1941304601F00101FFF7CC
:100990003FFE06460028E6D02201294619F0AEF8AF
:1009A000B7F8A43213B92846FFF710FC3046BDE86B
:1009B000F0871C4403449C4215D24FF0020801E02A
:1009C000D7F888214FEA940C04F0030E12F80C10AB
:1009D0004FEA4E0E08FA0EFE01344EEA01019C4227
:1009E00002F80C10ECD1C6EB00120021A81919F086
:1009F000C8F82846BDE8F08708462946BDE8F04714
:100A0000FFF706BEC859002010B588B002A80A4CEE
:100A1000FFF7A8FD0499029A039B0091204607491D
:100A200000F094FF07990091059A069B044920461F
:100A300000F08CFF08B010BDF8F6040890BD040863
:100A4000B4BD04082DE9F0414D4F4E494E48D7F84A
:100A5000942100F07BFFD7F88C11890018BF002586
:100A60001ED177E005F0030676004FEA9508D7F827
:100A70008831434A13F80830334103F00303022B53
:100A800066D0032B62D0012B47D02E223F493E482F
:100A900000F05CFFD7F88C1101358900A94259D9C3
:100AA000A806DFD18D4261D2D7F888014FEA9508B8
:100AB00005F0030610F80830760033419A0721D17B
:100AC0002C4604E0825C42FA03F39B0708D1013410
:100AD00004F003038C424FEA94024FEA4303F1D33C
:100AE000621B7F2A0ED992092748294900F02EFF60
:100AF000D7F88C3124F03F05B5EB830F2AD24FEAAB
:100B000095080026D7F8942122491F4802EB0512C8
:100B1000C2F3130200F01AFFA9E7D2F894111E4B9A
:100B20002A018A589A421BD01C4B9A421AD01C4B5D
:100B30009A4219D01B4B9A421ED01B4B9A421DD091
:100B40001A4B93420CBF4D2268229FE76D229DE70E
:100B500074229BE70C481649BDE8F04100F081BBC8
:100B6000542293E74C2291E744228FE705F00306D5
:100B700076004FEA9508C5E7462287E7422285E7D7
:100B8000C8590020E8BD0408F8F604082CBE040883
:100B900008BE040824BE0408C43C05087C290508D6
:100BA000801B0508702505083C260508482B05080C
:100BB00004BE0408074BDB684BB15A68904204D36B
:100BC000801A043053F8200070471B68F4E7184679
:100BD000704700BFC859002038B5114CE36805467E
:100BE0009868DB6883420FD30230C000FFF742FAF7
:100BF000E3680360D9685A689B685B0083600A44B5
:100C000000234260C360E060E368DA68501C04328D
:100C1000D86043F822505B68013B184438BD00BFE0
:100C2000C8590020014441F20553884205D210F80A
:100C3000012B03EB43135340F7E798B2002808BF9A
:100C400001207047034B044ADA600022C3F86C218C
:100C5000704700BFC859002000BF04082DE9F84FB5
:100C600081468846FFF7DEFF154BDC68834624B3D8
:100C7000E56804F1100A043504EB85055646AE42DA
:100C8000374618D256F8040B4278037843EA022319
:100C90005B45F4D183784345F1D103304946424660
:100CA00018F091FF0028EAD16368CAEB070003EB54
:100CB000A000BDE8F88F2468D9E72046BDE8F88F8A
:100CC000C85900202DE9F04780460E46FFF7C6FFC1
:100CD0000246002856D12C4CD4F86C01351DC8B101
:100CE000D4F87431D4F870112B448B4212D92944B2
:100CF000FFF7FDF9074640B9D4F86C01D4F8741138
:100D0000FFF7E8F9C4F86C7104E0D4F870312B44B3
:100D1000C4F87031D4F86C31ABB97F2D8CBF2F463D
:100D200080273846FFF7B3F9C4F86C0130B928467C
:100D3000FFF7A0F9144B2F46C3F86C010023C4F849
:100D40007071C4F87431D4F87491D4F86CA1314640
:100D50004D444046C4F87451FFF764FF0AEB09079D
:100D60000AF80900000A7870BE70F81C4146324645
:100D70003E4418F0C3FE0023F3703846BDE8F04748
:100D8000FFF72ABFBDE8F087C859002010B5044618
:100D900018F02BFF01462046BDE81040FFF792BF38
:100DA00038B5054604300C46FFF764F920608570BD
:100DB0002068033038BDF8B58578C71C044629463D
:100DC0003846FFF74BFF064668B938462946FFF715
:100DD00029FF25442070000A6070EE702046BDE8AF
:100DE000F840FFF7F9BE2046FFF783F93046F8BD1B
:100DF00008B5FFF7DFFE4278007840EA022008BD20
:100E000008B5FFF7D7FE807808BD08B5FFF7D2FE1A
:100E1000033008BD10B50C46FFF7CCFE8378236085
:100E2000033010BD2DE9F0471D46002303600B6021
:100E300013602B60184BDC688046894617462CB33C
:100E4000164B9C4222D0D8F800300133C8F800304D
:100E5000D9F80020E3681344C9F80030E36804338C
:100E600004F1100A04EB8306B24507D25AF8040BCA
:100E7000FFF7D0FC3B6818443860F5E72046FFF7E1
:100E8000C9FC2B68246818442860D8E72A683B68A6
:100E900013442B60BDE8F087C859002000BF040848
:100EA0000C4B70B5DC68A4B10B4B9C4211D0E368CD
:100EB000043304F1100604EB8305AE4207D256F862
:100EC000042B06490648033200F040FDF5E724688C
:100ED000E9E770BDC859002000BF040874CE0408BB
:100EE000F8F6040870B54468036821449942054641
:100EF00013D9067BC6F340068EB94C0024F00704D4
:100F0000083480682146FFF7E5F820B92B7B43F0D1
:100F100001032B7304E02C60A860012600E000268A
:100F2000304670BD037B70B51446DA0705460E46A1
:100F300003D52B7B9B0705D470BD2146FFF7D2FF5D
:100F400028B9F6E795E818009C420AD21C1B6B688A
:100F5000A86822461844314618F0FCFD6B681C4412
:100F60006C6070BD037BDB0770B505460C4601D590
:100F7000002070BD01214668FFF7B4FF0028F7D0BC
:100F8000B44228BF3446A968601C0844321B21447F
:100F900018F0E0FD6B68A86801336B60204470BDF9
:100FA00038B504460025002914BF084601202060FA
:100FB0006560FFF75FF8237BA06010B943F0010381
:100FC00003E003F0FE0365F34103237338BD38B536
:100FD00005460C460131FFF7E3FF6C6038BD002386
:100FE0004360037B016003F0FE0343F00203826071
:100FF0000373704738B514460546FFF7D1FF024B1F
:101000002560636038BD00BF250F0208037B9B0786
:1010100010B5044602D48068FFF76BF80023A36084
:1010200010BD10B51020FFF725F8044610B11021AF
:10103000FFF7B6FF204610BD10B5044650B1037B44
:101040009B0702D48068FFF754F82046BDE81040A3
:10105000FFF74FB810BD037B002262F3000342602C
:1010600003737047007B00F001007047037BDB07D0
:1010700054BF806800207047037BDB0754BF406883
:101080000020704738B5037B9B0704460D4610D4FB
:10109000016880682944FFF71DF820B9237B43F0DD
:1010A0000103237338BD2368A0601D4425601844E4
:1010B00038BD002038BD38B5037BDB0704460D463C
:1010C00001D5002038BDFFF70DFF0028F9D0636877
:1010D000A0681D446560184438BD38B5057BC5F36C
:1010E000000515F0FF0F044601D0002038BD012196
:1010F000FFF7F8FE0028F8D0A2686368D554A0680E
:1011000038BD10B50C460121FFF7D5FF00B10470C2
:1011100010BD7F2910B50C4606D80121FFF7CBFF83
:1011200000283FD0047010BDB1F5006F0DD2022130
:10113000FFF7C1FFB0B3A30904F03F0463F03F031E
:1011400064F07F040370447010BDB1F5803F12D28B
:101150000321FFF7B0FF28B3230B63F01F030370D5
:10116000C4F3851304F03F0463F07F0364F07F044D
:101170004370847010BD0421FFF79DFF90B1A30C54
:1011800063F00F030370C4F3053363F07F03437010
:10119000C4F3851304F03F0463F07F0364F07F041D
:1011A0008370C47010BD38B5054608460C4618F06B
:1011B0001CFD214602462846BDE83840FFF7B2BE76
:1011C00010B51446FFF7CEFE00B1047010BD10B587
:1011D0001446FFF7C7FE00B1047010BD027B12F089
:1011E000010206D14368994201D9426070475B1AF7
:1011F00043607047037BDB0770B50446154611D486
:10120000426891420ED24B19934201D3416070BDA6
:101210008668521A7018521BF11818F09BFC62680D
:10122000521B626070BD000007B5044B0090684619
:10123000019300F04FFA03B05DF804FB250F02089C
:101240000EB403B503AA52F8041B0192FFF7ECFF9A
:1012500002B05DF804EB03B07047084611461DF07C
:101260002FB970B5064608460D4618F0BEFC044678
:1012700020B196E80900294622469847204670BDCD
:101280002DE9F74F0D9C9146A41A9DF8302012F0DD
:10129000DF0F06468A4609D0302A0CAA264F0EBF19
:1012A0004FF0100817464FF0010802E0234F4FF0AF
:1012B000100813F0800205D0022394FBF3F3E51A23
:1012C0001C4602E013F0010515D1002C16DDA346E3
:1012D000C345DC46A8BFC446624696E809003946C5
:1012E000CDF804C09847DDF804C0CCEB0B0BBBF184
:1012F000000FEDDC03E02546144600E00024B9F1C0
:10130000000F05D096E8090051464A4698474C44DC
:10131000002D0DDD2C444545A946A8BFC14696E8E1
:10132000090039464A46C9EB05059847002DF2DC0D
:10133000204603B0BDE8F08F12F7040823F7040835
:101340002DE9F04389B08046119E10989DF8489091
:10135000139F0AB900220DE0002904DA2D228DF82E
:101360000F2049420EE0B40701D52B2202E072079C
:10137000F0D520228DF80F2021B908AC302304F8D5
:10138000013D12E008ACB1FBF3F503FB1512092A8D
:10139000C6BFA0F10A0E7244303204F8012D04AA2F
:1013A0009442294601D9002DEDD116F040039DF855
:1013B0000F500DD0ADB10122CDF800900192404602
:1013C0000DF10F013346FFF75BFF013F054608E0D3
:1013D0003DB104AA944284BF04F8015C04F1FF34D7
:1013E0001D4608AB1A1BCDF80090019740462146D8
:1013F0003346FFF745FF284409B0BDE8F0830000FD
:101400002DE9F04F91B093469946CA079DF86C308C
:101410001A9E059382460C461C9FDDF874800BD4FF
:101420008B0703D10968804B994205D020460BF009
:1014300015FA400040F0010416F0810306D1059A28
:10144000302A03D14745B8BF4746984620460EF09C
:10145000DBF808A958B1B50701D52B2302E07207C4
:1014600005D520238DF820300DF1210500E00D4633
:10147000F30622D5BBF1020F06D12B46302003F82C
:10148000020B09F1010016E0BBF1080F0AD1B20509
:101490004FF030032B7045BF09F10E036B7001351F
:1014A00002350AE0BBF1100F07D12B46302003F8BC
:1014B000020B09F1170068701D46002316F0200F7B
:1014C0000CBF18462C20B8F1010F0CAAC8BF46F07B
:1014D0004006099216F0400F4FF010022B700B934C
:1014E0008DF81F30A5EB01050A92CDF800B05FFA28
:1014F00089F315D00022019202930390234609A894
:101500000AA90BAA0DF02CFF03782D2B834615D1C9
:101510008DF81F300B9B013B00F1010B0B930DE08D
:101520000191029303900AA909A80BAA23460DF082
:1015300017FFB8F1010F834644DC02E0B8F1010F58
:1015400064DC4FF000094C46730619D59DF81F3036
:1015500053B1002301220093019250460DF11F0167
:10156000FFF78EFE013F044455B100230122019292
:101570000093504608A92A46FFF782FE7F1B0444C9
:10158000059B0B9AB8F1010FC8BF47468DE888004C
:10159000504659463346FFF773FE0444B9F1000F35
:1015A00009D0202300228DE8080250461F49134627
:1015B000FFF766FE044409980CAB984230D0FEF762
:1015C00098FD2DE00B9C4445B8BF4446BC420ADA66
:1015D00006F00103002BA7EB040416BFA1464FF051
:1015E0000009002402E04FF000094C4626F00106F5
:1015F0004CB1202300228DE8180050460B491346B9
:10160000FFF73EFE0446302305939DE70B9C9DF8B3
:101610001F304445B8BF444603B101342C44D5E7DC
:10162000204611B0BDE8F08FA42805082D8C0508D0
:101630002DE9F0438BB012F0020F07460C4691469D
:101640009846129E05D112F0040F0CBF00232023F0
:1016500000E02B23009302A820212246139B09F0CF
:101660005FF819F4807F20EAE0750DD06B1C1F2B0A
:101670000ADC0AAA1544252205F8202C0AAA1A44D5
:10168000002102F8201C1D4619F0400412D09DF8DC
:1016900008302F2B4FF000030ED8012202A900932F
:1016A00001923846FFF7ECFD013E0446013D0DF185
:1016B000090103E002A901E002A91C46CDF800805F
:1016C000019638462A464B46FFF7DAFD20440BB018
:1016D000BDE8F0832DE9F04F804689B091460024A3
:1016E0000B461D4613F8012B4AB98D420AD96E1AD2
:1016F00098E80900324698473444294602E0252AF2
:10170000EFD1F2E70B78002B00F0168101314FF09A
:10171000200B00270A4611F8013BABB12D2B02D15B
:1017200047F00107F6E72B2B02D147F00207F1E75C
:10173000202B02D147F00407ECE7212B02D147F020
:101740000807E7E7302B02D04FF0000A03E047F02C
:1017500040079B46DEE7134612F8011BA1F130005B
:10176000092805D80A2303FB0A1AAAF1300AF2E76E
:101770002E291E461CD15A782A2A02D00133002273
:1017800007E0D9F80020023609F1040522EAE272E6
:1017900011E01878A0F1300109291E4603F1010378
:1017A00004D80A2101FB0202303AF2E74D4602E07A
:1017B0004D464FF0FF3233786C2B08BF013633783B
:1017C000002B00F0B980642B7AD013D8502B00F096
:1017D000838005D8A3F14501022940F28B80A2E065
:1017E000622B17D029D8582B40F09D8005F10409B1
:1017F000412374E0712B2DD004D8672B7AD9702B3C
:101800006AD090E0752B50D0782B65D0732B40F0C8
:101810008A8031E02B68CDF800B005F10409CDF8DD
:1018200004A0404613B14649042201E0454905227F
:101830003B46FFF725FD04447CE008A92B6801F82E
:10184000043D05F10409CDF800B0CDF804A04046F0
:101850000122EDE707A928680492FFF7DBFA049A52
:10186000CDF800B00146501C05F1040908BF079AE5
:10187000CDF804A04046DBE705F104092D6865B109
:10188000531C03D1284618F0B0F90246CDF800B039
:10189000CDF804A040462946CAE7CDF800B0CDF8FF
:1018A00004A0404628490622C2E761238DE8880843
:1018B000CDF80CA005F1040940462968002209E092
:1018C00061238DE88808CDF80CA0296805F104098A
:1018D000404601220A230AE005F1040961238DE84C
:1018E0008808CDF80CA02968404600221023FFF795
:1018F00027FDA0E7073525F00705D5E90001059389
:10190000049218F0EDF9059B049A019200EE100A7A
:101910001946CDF800A040463A465B4605F1080955
:10192000FFF786FE87E798E80900314601229847CD
:101930000134A946711CD3E6204609B0BDE8F08FFA
:1019400000F7040805F704080BF704080EB403B504
:1019500003AA52F8041B0192FFF7BCFE02B05DF827
:1019600004EB03B0704703781A0613D503F07F0326
:1019700040221A4203D023EA02035208F9E710F882
:10198000012F02F0C001802904D102F03F0242EA97
:101990008313F4E718467047421C1046013203785F
:1019A00003F0C003802BF8D070470023814207D991
:1019B00011F8012D02F0C002802A18BF0133F5E7AB
:1019C000184670470144034600208B421A4608D24D
:1019D000127802F0C002802A03F1010318BF01301F
:1019E000F3E770477F289DBF024B185CC0F34000AF
:1019F0000020704734F704087F289DBF024B185C15
:101A0000C0F3C0000020704734F704087F289DBF52
:101A1000024B185CC0F380000020704734F70408C4
:101A20007F289DBF024B185CC0F3801000207047D8
:101A300034F704087F289DBF024B185CC0F30010E8
:101A40000020704734F704087F289DBF024B185CC4
:101A5000C0F340100020704734F7040810B5044666
:101A6000FFF7E8FF10B104F1200010BD204610BDC3
:101A700010B50446FFF7E8FF10B1A4F1200010BD37
:101A8000204610BD3038092884BF20F020000738D8
:101A90007047F0B51C0994421AD2121B01EB4401A5
:101AA000154606466DB131F8024B012D84BF0F88F3
:101AB00044EA074403F00F07FC4026F8024B013DBF
:101AC000F0E700EB420030F8023C1BB9501EF0BDBD
:101AD0000020F0BD1046F0BDF0B5059F0024D21BDC
:101AE0002546BC420AD031F814E033F8146076443D
:101AF000354420F814502D0C0134F2E76400061927
:101B0000023C2144374614463CB131F8023F1D44A3
:101B100027F8025B013C2D0CF6E706EB42031DB1F2
:101B2000012126F812100233181A4010F0BDF0B54A
:101B3000059F0024D21B2546BC420AD031F8146010
:101B4000354433F81460AD1B20F814502D140134C3
:101B5000F2E764000319023C214416461F463EB1D9
:101B600031F8024F254427F8025B013E2D14F6E7B9
:101B700003EB4202023A8242134603D31988023A27
:101B80000029F8D00233181A4010F0BD10B50446F1
:101B900038B18068FEF7ADFA2046BDE81040FEF788
:101BA000A8BA10BD38B50446806801298CBF0D461F
:101BB000022518B12368B5EB930F0AD923789B0748
:101BC00007D46900FEF786FA2368A06065F39F03D7
:101BD000236038BD38B505460C20FEF74BFA2A784D
:101BE000037862F300036FF341030446037028682F
:101BF0002368C0F39D0060F39F0323606B686360FC
:101C0000AB680BB9A3600AE04000FEF733FAA060AE
:101C10002A68A968C2F39D02520017F06FFF2046A0
:101C200038BD994210B510D312D84B0018441A444D
:101C300049B130F8023D32F8024D1B1B002B04DB8A
:101C400006D10139F4E7084610BD4FF0FF3010BD52
:101C5000012010BD38B505460C460321FFF7A2FF51
:101C60002B78002CB5BF43F001036FF300032B70FA
:101C70002B704FF00003B4BF614221466B6039B155
:101C80006B68AA68581C686022F81310090CF6E704
:101C900038BD037803F0FE036FF34103037003685C
:101CA0006FF39F030360002343608360704728B194
:101CB00003789B0702D48068FEF71BBA704738B5DB
:101CC00005460C464968FFF76DFF22782B78A86817
:101CD000A16862F300032B7063686B606268BDE803
:101CE0003840520017F00ABF034609B959607047DF
:101CF000FFF7B0BF38B505460C46FFF7CAFF2846C8
:101D00002146BDE83840FFF7EFBF30B50578816068
:101D100005F0FE0545F002050570056862F39F05B4
:101D20000022056042601946BDE83040FFF7DCBF85
:101D300070B50521064614461D46FFF733FF9DF892
:101D40001020337852B1002C75F1000206DA43F00E
:101D500001036242337065EB450304E06FF3000357
:101D6000337022462B460021716052EA03010CD0E9
:101D70007168B0684C1C746020F81120110C41EAA5
:101D80000341180C0A460346EFE770BD2DE9F04108
:101D900010EE105A0378EA0F62F300030370C5F3E4
:101DA0000F4313F4FF43804604D10023C8F80430E6
:101DB000BDE8F081B3F5FF4FF7D0C5F3C753A3F1EA
:101DC0007F06002EF1DB04D10121BDE8F041FFF7D1
:101DD00041BF162ED8BF0026C5F31605A3F16F0725
:101DE0004FF01004D8BFC3F1960397FBF4F7C8BFB8
:101DF000093645F40005D8BF34463946C9BF963B7D
:101E0000DD4006F00F0693FBF4F4FFF7CBFEC8F8B5
:101E100004702CB1D8F808000021620017F0B1FE60
:101E20004EB1D8F8083005FA06F2C6F1100623F8CC
:101E30001420F540013464007F00BC4205D0D8F87E
:101E400008301D532D0C0234F7E7BDE8F0812DE971
:101E5000F8438F1804460E46C2F35B0198460131E1
:101E6000089DFFF79FFE2278B8F1000F02D042F0E4
:101E7000010201E068F30002002322706360314632
:101E8000B942084631D20278A2F13003092B01F1A0
:101E900001010CD9A2F14103192B02D8A2F1370399
:101EA00005E0A2F16103192B1FD8A2F15703AB4241
:101EB0001BD2A068D4F804E09BB27246844652B1AB
:101EC000BCF800801FFA85F909FB08332CF8023BA7
:101ED000013A1B0CF3E700EB4E0213B120F81E3061
:101EE0000232121A52106260CAE7801BBDE8F88302
:101EF0004068B0FA80F04009704738B50C46416838
:101F000009B9636883B12378057803F0010305F00C
:101F100001029B1A08D163688068A268FFF781FEFE
:101F2000EB0702D5404238BD184638BD884210B58F
:101F3000044601D0FFF7C3FE23786FF3000323703C
:101F400010BD884210B5044601D0FFF7B8FE2378D3
:101F5000C3F30002C2F1010262F30003237010BD5B
:101F600088421FB5044601D0FFF7A9FE626842B956
:101F700020460121FFF716FEA2680123138063604B
:101F800021E02378D9070ED56FF30003A0682370F2
:101F90000123ADF80E30009301460DF10E03FFF75B
:101FA000C6FD606013E0511C2046FFF7FBFDA068F2
:101FB00062680123ADF80E30009301460DF10E0367
:101FC000FFF78AFD6060237843F00103237004B0BB
:101FD00010BDF0B54B6885B004460D4616460BB1F2
:101FE000002A04D120462946FFF769FE4AE003DAB9
:101FF000524200F049F845E01946FFF7D3FDA968C1
:102000006A68A0683346FFF744FD6060297823784A
:1020100061F300032370DB07024633D500236868B1
:10202000ADF80E30311183420DD08B420BD0AF682A
:1020300037F813702FB101238142ADF80E3004D36D
:1020400013E00133EFE781421CD2AB6806F00F06C4
:1020500033F81100012101FA06F3013B184218BFC1
:10206000ADF80E10BDF80E3063B10123A06812B9AF
:102070000380636006E0009301460DF10E03FFF755
:102080002BFD606005B0F0BD4B682DE9F74F0546AC
:102090000E4614460BB1002A06D12846314603B03D
:1020A000BDE8F04FFFF70BBE05DA524203B0BDE8C2
:1020B000F04FFFF78EBF02F10F0703EB2711FFF779
:1020C00071FD7168A8683B095F1814F00F0207F1F1
:1020D000004408BF1022013C01F1004E6FF00109DD
:1020E000019264000EF1FF3E09FB01F9B26809EBB1
:1020F0004E0E204402EB0E0C80464FF0000E019A6B
:10210000C2F1100A59B13CF811B04BEA0E0E2EFA8A
:102110000AFA28F802A94FEA0E4E0139EFE75A00F1
:1021200000EB0908C2F10202904403F100422EFACA
:102130000AFE013A20F809E05200404617F021FD5E
:102140000234444427B134F8023D0BB9013FF9E7AA
:102150006F6032782B7862F300032B7003B0BDE818
:10216000F08F73B515460C466B6892680646886812
:102170004968FFF756FD0028BEBF23462C461D4682
:1021800023782A785340DB070DD46168304601314B
:10219000FFF708FD6B680093B068A1686268AB68E0
:1021A000FFF79AFC0BE030466168FFF7FBFC6B68B9
:1021B0000093B068A1686268AB68FFF7B8FC706014
:1021C0002278337862F30003337002B070BDF7B544
:1021D00016460C4673689268054688684968FFF79A
:1021E00020FD0028BEBF234634461E4623783278A1
:1021F00083EA0203B4BF01270027DB070DD561681E
:1022000028460131FFF7CEFC73680093A868A168E7
:102210006268B368FFF760FC0BE028466168FFF76F
:10222000C1FC73680093A868A1686268B368FFF78F
:102230007EFC686022782B781FB1C2F30002C2F1E5
:10224000010262F300032B7003B0F0BDF8B5144631
:102250000A7823780E4683EA0201C907054629D485
:10226000D20771D4636872689A423EBF33462646ED
:102270001C466168FFF796FCA968B668A7686068A5
:102280000023834208D037F8134036F81320224049
:1022900021F813200133F4E701EB4303023B8B42A7
:1022A0001A4602D20232521A48E01088023B002835
:1022B000F5D0F7E7DB075EBF334626461C4671685C
:1022C0000131FFF76FFCA268D5F808E07168646817
:1022D000B768023A0C1B7046012371B1A1420CD0C1
:1022E00032F8026FF64313FA86F337F8026B1E409A
:1022F00020F8026B1B0C0139EFE70446023F0A4647
:1023000052B137F8026F03F57F43FF331E4024F8C4
:10231000026B1B0C013AF3E700EB41021BB10123F6
:1023200020F8113007E0931E73451A4603D3118835
:10233000023B0029F8D00232CEEB02022B78521079
:102340006FF300036A602B70F8BDF8B517460D46B1
:102350007B689268064688684968FFF762FC002837
:10236000BEBF2B463D461F462B783A7869685340DE
:1023700013F00104304628D1FFF714FCD7F808C049
:102380006A687F68B068D5F808E0D11B2346BB4275
:1023900008D03CF813403EF81320224320F81320C5
:1023A0000133F4E75B00C218023B73440C46174646
:1023B0002CB133F802EF27F802EB013CF8E702EB0F
:1023C0004102121A5210726001E0FFF7EBFB2A780B
:1023D000337862F300033370F8BDF8B517460D4645
:1023E0007B689268064688684968FFF71AFC0028EF
:1023F000BEBF2B463D461F462B783A78696853404E
:1024000013F00104304628D1FFF7CCFBD7F808C001
:102410006A687F68B068D5F808E0D11B2346BB42E4
:1024200008D03CF813403EF81320624020F81320F7
:102430000133F4E75B00C218023B73440C461546B7
:102440002CB133F8027F25F8027B013CF8E702EB60
:102450004102121A5210726001E0FFF7A3FB3378B9
:102460006FF300033370F8BD2DE9F04F4B6885B072
:1024700004460E4615460BB1536823B9002363602A
:1024800005B0BDE8F08F814206D1FFF7A3FBB5424E
:10249000074608D1054606E0824206D1FFF79AFBBF
:1024A0000546074602E03E4600E00027736869687B
:1024B00020461944FFF776FB2268A068C2F39D020C
:1024C0000021520017F05DFBB368D6F804E0D4F8A1
:1024D00008A002936FF0010303FB0EF3D5F8088008
:1024E0006A6803930AEB4E010020039B01EB030C87
:1024F0002AB3029BCDF804E0A3F10209002301985E
:1025000078B1B8F8000039F802BF0BFB0033BCF813
:1025100000B001985B4401382CF8023B01901B0C81
:10252000EDE7084601F1020C0BB10B806046CAEBE7
:1025300000004010013A08F102086146D5E76060EA
:10254000297833784B4013F0010F237838460CBFBD
:1025500062F3000343F00103237005B0BDE8F04FC0
:10256000FFF714BB4B6870B50646144613B11378D9
:10257000DA0702D50023736070BD636823B90121B7
:10258000BDE87040FFF766BB0846FFF723FB054632
:102590002046FFF71FFB012104463046FFF75AFB98
:1025A000636883B1A3681B88DB0704D530463146D6
:1025B0002A46FFF759FFA068626801460123FFF72A
:1025C00068FA606038B92846FFF7E0FA2046BDE8AF
:1025D0007040FFF7DBBA284629462A46FFF744FF3A
:1025E000DEE72DE9F04F8DB0044604935B680D469D
:1025F000904613B943604B6048E151680131FFF7E1
:10260000D1FAD8F80420A0680132520000214FF01E
:10261000000A17F0B6FAC4F804A0D8F80410284647
:102620000131FFF7BFFA28464146FFF748FB049BFC
:10263000AE689F68D5F804905B680193A368059322
:10264000304649463A46019BFFF7EBFA002805D190
:10265000059A68600123138063600CE102DAC4F814
:1026600004A008E1019B03F1004101394A00BB18B5
:10267000029337F8113013F4004F1FFA8AF00AF171
:10268000010A02D15B009BB2F5E7931C069307EBAE
:10269000030A4FF0000C3B4653450DD21A8802FA4C
:1026A00000FE4EEA0C0E23F802EBC0F1100E42FAC7
:1026B0000EF21FFA82FCEFE74FEA49034FF0000EDB
:1026C00009F1010203F1020A26F819E0B2446A6036
:1026D000B446D4450ED2BCF8009009FA00FB4BEA90
:1026E0000E0E2CF802EBC0F1100E49FA0EF91FFA8B
:1026F00089FEEEE737F8111009910199521A02F19B
:1027000000496260059A09F1FF3902EB490207921C
:102710003344D5F804B0019A0A9393456ED933F83F
:10272000022CB3F800E042EA0E4E099ABEFBF2FE1C
:10273000069AC2EB030CBA1ECDF82CC00892039285
:1027400000229C4521D203993CF802AB31F8029F4C
:10275000039109FB0EF1514503D2C1EB0A099145E2
:102760000ED80A44CAEB020ACAF100022CF8022C65
:102770001FFA8AF2003218BF012202EB1A42E0E788
:10278000C2EB09022CF8022CDAE733F802198A426C
:1027900009D3521A5142598091B2003118BF012118
:1027A00001EB124202E08A1A5A8000220392039A35
:1027B000E2B1DDF820A0DDF82C9000210A9A9145C5
:1027C00009D23AF802CF6144B9F800C0614429F84F
:1027D000021B090CF2E7B3F802C0039A6144A2EBB2
:1027E0001142598003920EF1FF3EE0E7079A22F86A
:1027F00002E907920BF1FF326A608AE70023029A2E
:10280000BA420DD3029A118841FA00F21A43029B90
:1028100023F802290293C0F1100399408BB2EEE72E
:102820000BF10043013B06EB43030022B34213D3F9
:102830001F8847FA00F11143C0F11002974023F8B6
:102840000219BAB2F2E703F10042013A059931F8F0
:1028500012206AB9013B63606368002BF3D107E083
:1028600003F10042013A36F8122022B9013B6B60B5
:102870006B68002BF4D1049B1A7898F80030534011
:10288000DB0742BF237843F0010323700DB0BDE89E
:10289000F08F10B581684268002301EB420291423B
:1028A00004D232F8024D44EA0343F8E70278D20733
:1028B00048BF5B42184610BD30B5426884680023AB
:1028C00004EB4202944207D2B3F5004F0BD232F828
:1028D000025D45EA0343F5E70278D20748BF5B4251
:1028E0000B60012030BD002030BD2DE9F043904643
:1028F00009B19D1800E01D46846842680026A4F1D5
:10290000020E4FF00109374642B33EF8024F10372E
:1029100044EA0646072F1FDD90F800C0B4B21CF051
:10292000010F1FBFE44359FA84F4A4B24FEA1429FB
:1029300039B105F1FF3C9C4505F8014C08D1BDE8D3
:10294000F08305F1010C2C7003EB0804A44505D0BD
:10295000083F360A6546DDE7013AD5E7BDE8F08372
:10296000826843689FED0C0A02EB43039A420CD243
:1029700033F8021D9FED097A07EE901AF8EEE77A18
:10298000E0EE077AB0EE670AF0E70378DB0748BFAE
:10299000B1EE400A704700BF000000000000804711
:1029A00038B58C1E1E2C14D845680B4C2801655C6C
:1029B000B0FBF5F523B16B1C0324B3FBF4F400E08A
:1029C0001C4610460AB117F010F903352C44204478
:1029D00038BD002038BD00BFB4F704082DE9F84F1A
:1029E0000B9E9DF828A08046894615469B4616B149
:1029F0008B1E1E2B03D900203070BDE8F88F47686E
:102A00008FB93AB1551E304615F8013F1BB100F899
:102A1000013BF9E7304630230370002300F8013F03
:102A2000801BBDE8F88F7F003846FDF723FBD8F800
:102A300008103A4617F062F83146844633460CEBEC
:102A40000700841E002264450AD3B4F800E04EEA71
:102A50000242B2FBF9FE24F802E909FB1E22F2E76A
:102A60003032392A84BFABF13A0412191A705C1C57
:102A700062468242964606D2BEF800E00232BEF1BD
:102A8000000FF6D004E0BAF1000F0FD0012203E0EE
:102A9000BAF1000F08D00022601A032802BF9C1C64
:102AA00083F801A021460AB92346C8E76046FDF72E
:102AB00020FB65B1284617F098F823462844A84221
:102AC0001C4604D910F8012D03F8012BF7E798F8FC
:102AD0000030DB0742BF2D2323700134631E3246D2
:102AE0009A4206D21178187802F8010B03F80119FE
:102AF000F6E700232370A01BBDE8F88F0369591C7B
:102B000010B504462DD00A2B04D1C3690133C3612B
:102B1000012306E0092B036A04BF073323F00703F0
:102B20000133236263692361A36963616068A368F9
:102B300098472369A0610D2B09D10A23236163699A
:102B40000A2B04D16061A36860689847A061A369FB
:102B5000013306D163695A1C03D00A2B1CBF0A2318
:102B6000A36110BD2DE9F74F00F14406044630463D
:102B70008846FEF770FA00272069431C17D00A2800
:102B800004D12046FFF7BAFF0127F5E7FEF72AFF39
:102B900008BB2369232B08D12046FFF7AFFF236929
:102BA0005A1CE9D00A2BF7D1E6E75C2B07D0E36982
:102BB000256AA363E563B8F1000F10D115E0204644
:102BC000FFF79CFF23690A2B05D0E369A363236AFF
:102BD000E3630423C5E12046FFF790FFCCE7012B18
:102BE00003D1012D01D00623B7E2636A002B02DA7C
:102BF000072222642BE004D006222264013B636298
:102C00008DE1002F37D0A36A002B34D10522226436
:102C1000226B636202F10043606B013B013D30F8BF
:102C200013309D4200F07B8113D9E16A8A4207D3B9
:102C300008314900FDF74EFAE36A60630833E36246
:102C4000236B626B591C216322F81350636A0133B2
:102C5000D5E7236B03F10042013A30F81220954288
:102C600005D2013B2363636A013B6362F1E700F035
:102C70005681022371E22069451C1BD1236B616BD5
:102C800003F10043013B31F81330002B00F0658263
:102C90000523236400236362236B03F10042013A9E
:102CA00031F81220002A00F03A81013B2363636A65
:102CB000013BF0E7272800F03A82222800F0378213
:102CC000752803D020F01003622B04D16369272BF1
:102CD00010D0222B0ED0722802D16369622B03E040
:102CE000622826D16369722B23D1A369272B01D0D7
:102CF000222B1ED1752803D12046FFF7FFFE16E2D6
:102D000062280BD12046FFF7F9FE2369722B40F0B1
:102D10002E812046FFF7F2FE012729E1722840F0BC
:102D200006822046FFF7EAFE2369622BF1D00127D5
:102D3000FEE1FEF761FE216918B95F2901D07F2904
:102D40001CD9082323643046C9B2FEF7DAF92046BD
:102D5000FFF7D4FE2069421C00F0E180FEF74CFE34
:102D600010B13046217CF0E720695F28F9D07F2838
:102D7000F7D8FEF74BFE0028F3D1D0E00846FEF767
:102D800045FE28B123692E2B0BD10A23236411E0C1
:102D900023692E2B46D16069FEF738FE0028F1D159
:102DA00040E00922302B226404D16069FEF724FE42
:102DB000054600E0002521693046FEF7AAF92046C5
:102DC000FFF79CFE2069431C00F0A98095B920F014
:102DD0002003452B0ED10A23652123643046FEF7DC
:102DE00098F92046FFF78AFE21692B2918D02D2952
:102DF000E8D115E0FEF700FE18B121692E2909D1AE
:102E00000CE02069FEF702FE0028F6D123692E2B84
:102E1000F3D084E021F020034A2B01D10A2323645C
:102E20003046CAE721692E291DD13046FEF771F9D7
:102E30002046FFF763FE23692E2B40F08D816569E4
:102E40002E2D40F0898130462946FEF762F9294649
:102E50003046FEF75EF92046FFF750FE2046FFF7AA
:102E60004DFE0D2379E1B64D00262F7877B1B9429A
:102E70000CD0652F05F1010304D0632F02D0452F3C
:102E800001D1013E1D4601360135EEE72046FFF730
:102E900035FE0FB9012360E1013537462B78652BEC
:102EA0000DD16B7822699A4207F1010705D12046BE
:102EB0000135FFF723FE3E4601E00235EEE72B78B1
:102EC000452B0AD16B7822699A4204D12046FFF73C
:102ED00015FE3E460FE001230FE0632B0BD16B780C
:102EE00022699A4207F1010705D12046FFF706FE45
:102EF00002353E46D2E7934B9B5D2364236C23F05F
:102F00000402422A01D0442B02D1A36A013305E016
:102F1000432A01D0452B02D1A36A013BA362236C53
:102F2000082B40F01E81E06CA56C0023864A52F805
:102F300023200021A942164607D03778465CB742C5
:102F400002F101020FD10131F4E712785AB9212BB5
:102F500040F005817D4BD3F88031002B0CBF10234E
:102F60000E232364FDE00133222BDFD1F9E000279B
:102F70000C2323644FF0010923692046222B14BF40
:102F80004FF0270A4FF0220AFFF7B8FD2369534597
:102F90000BD16369534508D12046FFF7AFFD2046AA
:102FA000FFF7ACFD4FF0030801E04FF001080025EA
:102FB000D4F810B0BBF1FF3F00F0B080B8F1010FC2
:102FC00003D1BBF10A0F00F0A980454580F0AA802B
:102FD000D34505D1304651460135FEF79AF899E0C0
:102FE000BBF15C0F40F090802046FFF787FD25691C
:102FF00017B1304659466CE0622D00F0AB8010D816
:103000004E2D6AD005D8222D67D0272D65D00A2DE8
:1030100018E05C2D61D0612D00F09A80552D40D1D3
:103020001AE0742D10D007D86E2D0FD0722D11D04C
:10303000662D36D10C2553E0762D09D00CD3782D92
:1030400019D0681C65D02CE0092549E00A2547E025
:103050000B2545E00D2543E0B9F1000F04D03046C3
:103060005C21FEF756F83BE0752D0CBF4FF0040BCA
:103070004FF0080B01E04FF0020B00251BF1FF3B66
:1030800029D32046FFF73AFD236901931846FEF73E
:10309000C7FC80B3019B1846FEF7F4FC2D010544E4
:1030A000ECE7A5F13003072B11D81D464FF0030BB9
:1030B0006369303B072B0ED8BBF1010B0BD02046C8
:1030C000FFF71CFD2369303B03EBC505F0E73046F5
:1030D0005C21FEF71EF8691C1BD0B5F5881F18D2BD
:1030E000B9F1000F04D130462946FEF712F810E07E
:1030F000FF2D06D90DE001232364B9F1000F1CD088
:1031000005463046E9B202E030465FFA8BF1FDF742
:10311000F8FF00252046FFF7F1FC49E745453CBF95
:103120000323236430462946FEF758F8F7E60027C4
:103130000B2323644FF000091EE74D46D3E700BF81
:1031400088F80408D5F7040800F80408C8590020D6
:103150000725C5E70825C3E74A232364DFE60E33C6
:10316000FFE603B0BDE8F08F10B5044678B1C36840
:103170000BB14068984704F14400FDF747FF606BCE
:10318000FCF7B7FF2046BDE81040FCF7B2BF10BD0A
:103190002DE9F041804654200E4617461D46FCF7A7
:1031A00076FF044618B9FDB13046A84749E001232F
:1031B0000022C5600A25C36103620363C0F8008072
:1031C0004262826246608760C5621420FCF75FFF3E
:1031D00004F14408606320214046FDF7E1FE636B83
:1031E0002BB92046FFF7C0FF0020BDE8F081404624
:1031F000FDF738FF0028F4D1636B18803046B847DC
:1032000020613046B84760613046B8472269A06106
:10321000561C04D06369591C06D10D2A01D12561C1
:103220000BE00A2A04D108E0013006D10D2B01D1B0
:10323000656102E00A2B18BFA56120460121FFF756
:1032400091FC2046BDE8F0810021FFF78BBC83682C
